{
    "contractName": "UsersContract",
    "abi": [
        {
            "inputs": [
                {
                    "internalType": "address",
                    "name": "_addr",
                    "type": "address"
                }
            ],
            "name": "getUser",
            "outputs": [
                {
                    "internalType": "string",
                    "name": "",
                    "type": "string"
                },
                {
                    "internalType": "string",
                    "name": "",
                    "type": "string"
                }
            ],
            "stateMutability": "view",
            "type": "function"
        },
        {
            "inputs": [
                {
                    "internalType": "string",
                    "name": "_name",
                    "type": "string"
                },
                {
                    "internalType": "string",
                    "name": "_surName",
                    "type": "string"
                }
            ],
            "name": "join",
            "outputs": [],
            "stateMutability": "nonpayable",
            "type": "function"
        },
        {
            "inputs": [],
            "name": "totalUsers",
            "outputs": [
                {
                    "internalType": "uint256",
                    "name": "",
                    "type": "uint256"
                }
            ],
            "stateMutability": "view",
            "type": "function"
        }
    ],
    "bytecode": "608060405234801561001057600080fd5b506106d2806100206000396000f3fe608060405234801561001057600080fd5b50600436106100415760003560e01c806329803b21146100465780636f77926b1461005b578063bff1f9e114610085575b600080fd5b61005961005436600461056c565b610096565b005b61006e610069366004610543565b610143565b60405161007c92919061061d565b60405180910390f35b60015460405190815260200161007c565b600082511180156100a8575060008151115b6100b157600080fd5b6100ba336102b2565b156100c457600080fd5b33600090815260208181526040909120835190916100e691839186019061041d565b5081516100fc906001830190602085019061041d565b50506001805480820182556000919091527fb10e2d527612073b26eecdfd717e6a320cf44b4afac2b0732d9fcbe2b7fa0cf60180546001600160a01b031916331790555050565b60608061014f336102b2565b61015857600080fd5b6001600160a01b03831660009081526020819052604080822081518083019092528054829082906101889061064b565b80601f01602080910402602001604051908101604052809291908181526020018280546101b49061064b565b80156102015780601f106101d657610100808354040283529160200191610201565b820191906000526020600020905b8154815290600101906020018083116101e457829003601f168201915b5050505050815260200160018201805461021a9061064b565b80601f01602080910402602001604051908101604052809291908181526020018280546102469061064b565b80156102935780601f1061026857610100808354040283529160200191610293565b820191906000526020600020905b81548152906001019060200180831161027657829003601f168201915b5050505050815250509050806000015181602001519250925050915091565b6001600160a01b0381166000908152602081905260408082208151808301909252805483929190829082906102e69061064b565b80601f01602080910402602001604051908101604052809291908181526020018280546103129061064b565b801561035f5780601f106103345761010080835404028352916020019161035f565b820191906000526020600020905b81548152906001019060200180831161034257829003601f168201915b505050505081526020016001820180546103789061064b565b80601f01602080910402602001604051908101604052809291908181526020018280546103a49061064b565b80156103f15780601f106103c6576101008083540402835291602001916103f1565b820191906000526020600020905b8154815290600101906020018083116103d457829003601f168201915b5050505050815250509050600081600001515111801561041657506000816020015151115b9392505050565b8280546104299061064b565b90600052602060002090601f01602090048101928261044b5760008555610491565b82601f1061046457805160ff1916838001178555610491565b82800160010185558215610491579182015b82811115610491578251825591602001919060010190610476565b5061049d9291506104a1565b5090565b5b8082111561049d57600081556001016104a2565b600082601f8301126104c757600080fd5b813567ffffffffffffffff808211156104e2576104e2610686565b604051601f8301601f19908116603f0116810190828211818310171561050a5761050a610686565b8160405283815286602085880101111561052357600080fd5b836020870160208301376000602085830101528094505050505092915050565b60006020828403121561055557600080fd5b81356001600160a01b038116811461041657600080fd5b6000806040838503121561057f57600080fd5b823567ffffffffffffffff8082111561059757600080fd5b6105a3868387016104b6565b935060208501359150808211156105b957600080fd5b506105c6858286016104b6565b9150509250929050565b6000815180845260005b818110156105f6576020818501810151868301820152016105da565b81811115610608576000602083870101525b50601f01601f19169290920160200192915050565b60408152600061063060408301856105d0565b828103602084015261064281856105d0565b95945050505050565b600181811c9082168061065f57607f821691505b6020821081141561068057634e487b7160e01b600052602260045260246000fd5b50919050565b634e487b7160e01b600052604160045260246000fdfea264697066735822122045686b27665e4ef4e7c2aabd238b317ca0afb3aec1eda29c1e7d9681ab6942aa64736f6c63430008070033",
    "sourcePath": "/Users/usuario/Desktop/Personal/hello-world-solidity/compile-and-deploy/contracts/UsersContract.sol",
    "compiler": {
        "name": "solc",
        "version": "0.8.7+commit.e28d00a7"
    },
    "functionHashes": {
        "getUser(address)": "6f77926b",
        "join(string,string)": "29803b21",
        "totalUsers()": "bff1f9e1"
    },
    "gasEstimates": {
        "creation": {
            "codeDepositCost": "349200",
            "executionCost": "386",
            "totalCost": "349586"
        },
        "external": {
            "getUser(address)": "infinite",
            "join(string,string)": "infinite",
            "totalUsers()": "2302"
        },
        "internal": {
            "userJoined(address)": "infinite"
        }
    }
}